{
  "contractName": "Voting",
  "abi": [
    {
      "anonymous": false,
      "inputs": [
        {
          "indexed": true,
          "internalType": "address",
          "name": "previousOwner",
          "type": "address"
        },
        {
          "indexed": true,
          "internalType": "address",
          "name": "newOwner",
          "type": "address"
        }
      ],
      "name": "OwnershipTransferred",
      "type": "event"
    },
    {
      "anonymous": false,
      "inputs": [
        {
          "indexed": false,
          "internalType": "uint256",
          "name": "proposalId",
          "type": "uint256"
        }
      ],
      "name": "ProposalRegistered",
      "type": "event"
    },
    {
      "anonymous": false,
      "inputs": [
        {
          "indexed": false,
          "internalType": "address",
          "name": "voter",
          "type": "address"
        },
        {
          "indexed": false,
          "internalType": "uint256",
          "name": "proposalId",
          "type": "uint256"
        }
      ],
      "name": "Voted",
      "type": "event"
    },
    {
      "anonymous": false,
      "inputs": [
        {
          "indexed": false,
          "internalType": "address",
          "name": "voterAddress",
          "type": "address"
        }
      ],
      "name": "VoterRegistered",
      "type": "event"
    },
    {
      "anonymous": false,
      "inputs": [
        {
          "indexed": false,
          "internalType": "enum Voting.WorkflowStatus",
          "name": "previousStatus",
          "type": "uint8"
        },
        {
          "indexed": false,
          "internalType": "enum Voting.WorkflowStatus",
          "name": "newStatus",
          "type": "uint8"
        }
      ],
      "name": "WorkflowStatusChange",
      "type": "event"
    },
    {
      "inputs": [],
      "name": "maxProposals",
      "outputs": [
        {
          "internalType": "uint256",
          "name": "",
          "type": "uint256"
        }
      ],
      "stateMutability": "view",
      "type": "function",
      "constant": true
    },
    {
      "inputs": [],
      "name": "owner",
      "outputs": [
        {
          "internalType": "address",
          "name": "",
          "type": "address"
        }
      ],
      "stateMutability": "view",
      "type": "function",
      "constant": true
    },
    {
      "inputs": [],
      "name": "renounceOwnership",
      "outputs": [],
      "stateMutability": "nonpayable",
      "type": "function"
    },
    {
      "inputs": [
        {
          "internalType": "address",
          "name": "newOwner",
          "type": "address"
        }
      ],
      "name": "transferOwnership",
      "outputs": [],
      "stateMutability": "nonpayable",
      "type": "function"
    },
    {
      "inputs": [],
      "name": "winningProposalID",
      "outputs": [
        {
          "internalType": "uint256",
          "name": "",
          "type": "uint256"
        }
      ],
      "stateMutability": "view",
      "type": "function",
      "constant": true
    },
    {
      "inputs": [],
      "name": "workflowStatus",
      "outputs": [
        {
          "internalType": "enum Voting.WorkflowStatus",
          "name": "",
          "type": "uint8"
        }
      ],
      "stateMutability": "view",
      "type": "function",
      "constant": true
    },
    {
      "inputs": [
        {
          "internalType": "address",
          "name": "_addr",
          "type": "address"
        }
      ],
      "name": "getVoter",
      "outputs": [
        {
          "components": [
            {
              "internalType": "bool",
              "name": "isRegistered",
              "type": "bool"
            },
            {
              "internalType": "bool",
              "name": "hasVoted",
              "type": "bool"
            },
            {
              "internalType": "uint256",
              "name": "votedProposalId",
              "type": "uint256"
            }
          ],
          "internalType": "struct Voting.Voter",
          "name": "",
          "type": "tuple"
        }
      ],
      "stateMutability": "view",
      "type": "function",
      "constant": true
    },
    {
      "inputs": [
        {
          "internalType": "uint256",
          "name": "_id",
          "type": "uint256"
        }
      ],
      "name": "getOneProposal",
      "outputs": [
        {
          "components": [
            {
              "internalType": "string",
              "name": "description",
              "type": "string"
            },
            {
              "internalType": "uint256",
              "name": "voteCount",
              "type": "uint256"
            }
          ],
          "internalType": "struct Voting.Proposal",
          "name": "",
          "type": "tuple"
        }
      ],
      "stateMutability": "view",
      "type": "function",
      "constant": true
    },
    {
      "inputs": [
        {
          "internalType": "address",
          "name": "_addr",
          "type": "address"
        }
      ],
      "name": "addVoter",
      "outputs": [],
      "stateMutability": "nonpayable",
      "type": "function"
    },
    {
      "inputs": [
        {
          "internalType": "string",
          "name": "_desc",
          "type": "string"
        }
      ],
      "name": "addProposal",
      "outputs": [],
      "stateMutability": "nonpayable",
      "type": "function"
    },
    {
      "inputs": [
        {
          "internalType": "uint256",
          "name": "_id",
          "type": "uint256"
        }
      ],
      "name": "setVote",
      "outputs": [],
      "stateMutability": "nonpayable",
      "type": "function"
    },
    {
      "inputs": [],
      "name": "startProposalsRegistering",
      "outputs": [],
      "stateMutability": "nonpayable",
      "type": "function"
    },
    {
      "inputs": [],
      "name": "endProposalsRegistering",
      "outputs": [],
      "stateMutability": "nonpayable",
      "type": "function"
    },
    {
      "inputs": [],
      "name": "startVotingSession",
      "outputs": [],
      "stateMutability": "nonpayable",
      "type": "function"
    },
    {
      "inputs": [],
      "name": "endVotingSession",
      "outputs": [],
      "stateMutability": "nonpayable",
      "type": "function"
    },
    {
      "inputs": [],
      "name": "tallyVotes",
      "outputs": [],
      "stateMutability": "nonpayable",
      "type": "function"
    }
  ],
  "bytecode": "0x6080604052600a6005553480156200001657600080fd5b50620000376200002b6200003d60201b60201c565b6200004560201b60201c565b62000109565b600033905090565b60008060009054906101000a900473ffffffffffffffffffffffffffffffffffffffff169050816000806101000a81548173ffffffffffffffffffffffffffffffffffffffff021916908373ffffffffffffffffffffffffffffffffffffffff1602179055508173ffffffffffffffffffffffffffffffffffffffff168173ffffffffffffffffffffffffffffffffffffffff167f8be0079c531659141344cd1fd0a4f28419497f9722a3daafe3b4186f6b6457e060405160405180910390a35050565b6125ed80620001196000396000f3fe608060405234801561001057600080fd5b50600436106101005760003560e01c8063a7bfab1611610097578063d4f50f9811610066578063d4f50f9814610217578063ee74c67814610247578063f2fde38b14610251578063f4ab9adf1461026d57610100565b8063a7bfab16146101db578063bdc01431146101e5578063c7038a4e14610203578063c88af42f1461020d57610100565b8063715018a6116100d3578063715018a6146101655780638da5cb5b1461016f578063a1edffa21461018d578063a2788cce146101ab57610100565b8063230796ae146101055780632f3fe24c146101215780632fdae3c51461013f578063378a21781461015b575b600080fd5b61011f600480360381019061011a91906114f7565b610289565b005b610129610584565b6040516101369190611533565b60405180910390f35b610159600480360381019061015491906115b3565b61058a565b005b610163610856565b005b61016d6109f1565b005b610177610a05565b6040516101849190611641565b60405180910390f35b610195610a2e565b6040516101a291906116d3565b60405180910390f35b6101c560048036038101906101c091906114f7565b610a41565b6040516101d291906117ca565b60405180910390f35b6101e3610ba8565b005b6101ed610c8e565b6040516101fa9190611533565b60405180910390f35b61020b610c94565b005b610215610e0f565b005b610231600480360381019061022c9190611818565b610ef4565b60405161023e91906118a2565b60405180910390f35b61024f61101c565b005b61026b60048036038101906102669190611818565b611102565b005b61028760048036038101906102829190611818565b611185565b005b600460003373ffffffffffffffffffffffffffffffffffffffff1673ffffffffffffffffffffffffffffffffffffffff16815260200190815260200160002060000160009054906101000a900460ff16610318576040517f08c379a000000000000000000000000000000000000000000000000000000000815260040161030f9061191a565b60405180910390fd5b6003600581111561032c5761032b61165c565b5b600260009054906101000a900460ff16600581111561034e5761034d61165c565b5b1461038e576040517f08c379a0000000000000000000000000000000000000000000000000000000008152600401610385906119ac565b60405180910390fd5b60011515600460003373ffffffffffffffffffffffffffffffffffffffff1673ffffffffffffffffffffffffffffffffffffffff16815260200190815260200160002060000160019054906101000a900460ff16151503610424576040517f08c379a000000000000000000000000000000000000000000000000000000000815260040161041b90611a18565b60405180910390fd5b600380549050811061046b576040517f08c379a000000000000000000000000000000000000000000000000000000000815260040161046290611a84565b60405180910390fd5b80600460003373ffffffffffffffffffffffffffffffffffffffff1673ffffffffffffffffffffffffffffffffffffffff168152602001908152602001600020600101819055506001600460003373ffffffffffffffffffffffffffffffffffffffff1673ffffffffffffffffffffffffffffffffffffffff16815260200190815260200160002060000160016101000a81548160ff0219169083151502179055506003818154811061052157610520611aa4565b5b9060005260206000209060020201600101600081548092919061054390611b02565b91905055507f4d99b957a2bc29a30ebd96a7be8e68fe50a3c701db28a91436490b7d53870ca43382604051610579929190611b4a565b60405180910390a150565b60055481565b600460003373ffffffffffffffffffffffffffffffffffffffff1673ffffffffffffffffffffffffffffffffffffffff16815260200190815260200160002060000160009054906101000a900460ff16610619576040517f08c379a00000000000000000000000000000000000000000000000000000000081526004016106109061191a565b60405180910390fd5b6001600581111561062d5761062c61165c565b5b600260009054906101000a900460ff16600581111561064f5761064e61165c565b5b1461068f576040517f08c379a000000000000000000000000000000000000000000000000000000000815260040161068690611bbf565b60405180910390fd5b600554600380549050106106d8576040517f08c379a00000000000000000000000000000000000000000000000000000000081526004016106cf90611c51565b60405180910390fd5b6040516020016106e790611c97565b604051602081830303815290604052805190602001208282604051602001610710929190611cf3565b6040516020818303038152906040528051906020012003610766576040517f08c379a000000000000000000000000000000000000000000000000000000000815260040161075d90611d89565b60405180910390fd5b61076e611478565b82828080601f016020809104026020016040519081016040528093929190818152602001838380828437600081840152601f19601f820116905080830192505050505050508160000181905250600381908060018154018082558091505060019003906000526020600020906002020160009091909190915060008201518160000190816107fc9190611fe4565b506020820151816001015550507f92e393e9b54e2f801d3ea4beb0c5e71a21cc34a5d34b77d0fb8a3aa1650dc18f600160038054905061083c91906120b6565b6040516108499190611533565b60405180910390a1505050565b61085e61132e565b600460058111156108725761087161165c565b5b600260009054906101000a900460ff1660058111156108945761089361165c565b5b146108d4576040517f08c379a00000000000000000000000000000000000000000000000000000000081526004016108cb9061215c565b60405180910390fd5b6000600380549050905060005a9050600082826108f191906121ab565b90506000806000905060005b858110801561090b5750835a115b1561097c57816003828154811061092557610924611aa4565b5b9060005260206000209060020201600101541115610969578092506003818154811061095457610953611aa4565b5b90600052602060002090600202016001015491505b808061097490611b02565b9150506108fd565b50816001819055506005600260006101000a81548160ff021916908360058111156109aa576109a961165c565b5b02179055507f0a97a4ee45751e2abf3e4fc8946939630b11b371ea8ae39ccdc3056e98f5cc3f600460056040516109e29291906121dc565b60405180910390a15050505050565b6109f961132e565b610a0360006113ac565b565b60008060009054906101000a900473ffffffffffffffffffffffffffffffffffffffff16905090565b600260009054906101000a900460ff1681565b610a49611478565b600460003373ffffffffffffffffffffffffffffffffffffffff1673ffffffffffffffffffffffffffffffffffffffff16815260200190815260200160002060000160009054906101000a900460ff16610ad8576040517f08c379a0000000000000000000000000000000000000000000000000000000008152600401610acf9061191a565b60405180910390fd5b60038281548110610aec57610aeb611aa4565b5b9060005260206000209060020201604051806040016040529081600082018054610b1590611e07565b80601f0160208091040260200160405190810160405280929190818152602001828054610b4190611e07565b8015610b8e5780601f10610b6357610100808354040283529160200191610b8e565b820191906000526020600020905b815481529060010190602001808311610b7157829003601f168201915b505050505081526020016001820154815250509050919050565b610bb061132e565b60036005811115610bc457610bc361165c565b5b600260009054906101000a900460ff166005811115610be657610be561165c565b5b14610c26576040517f08c379a0000000000000000000000000000000000000000000000000000000008152600401610c1d906119ac565b60405180910390fd5b6004600260006101000a81548160ff02191690836005811115610c4c57610c4b61165c565b5b02179055507f0a97a4ee45751e2abf3e4fc8946939630b11b371ea8ae39ccdc3056e98f5cc3f60036004604051610c849291906121dc565b60405180910390a1565b60015481565b610c9c61132e565b60006005811115610cb057610caf61165c565b5b600260009054906101000a900460ff166005811115610cd257610cd161165c565b5b14610d12576040517f08c379a0000000000000000000000000000000000000000000000000000000008152600401610d0990612277565b60405180910390fd5b6001600260006101000a81548160ff02191690836005811115610d3857610d3761165c565b5b0217905550610d45611478565b6040518060400160405280600781526020017f47454e4553495300000000000000000000000000000000000000000000000000815250816000018190525060038190806001815401808255809150506001900390600052602060002090600202016000909190919091506000820151816000019081610dc49190611fe4565b506020820151816001015550507f0a97a4ee45751e2abf3e4fc8946939630b11b371ea8ae39ccdc3056e98f5cc3f60006001604051610e049291906121dc565b60405180910390a150565b610e1761132e565b60016005811115610e2b57610e2a61165c565b5b600260009054906101000a900460ff166005811115610e4d57610e4c61165c565b5b14610e8d576040517f08c379a0000000000000000000000000000000000000000000000000000000008152600401610e8490612309565b60405180910390fd5b60028060006101000a81548160ff02191690836005811115610eb257610eb161165c565b5b02179055507f0a97a4ee45751e2abf3e4fc8946939630b11b371ea8ae39ccdc3056e98f5cc3f60016002604051610eea9291906121dc565b60405180910390a1565b610efc611492565b600460003373ffffffffffffffffffffffffffffffffffffffff1673ffffffffffffffffffffffffffffffffffffffff16815260200190815260200160002060000160009054906101000a900460ff16610f8b576040517f08c379a0000000000000000000000000000000000000000000000000000000008152600401610f829061191a565b60405180910390fd5b600460008373ffffffffffffffffffffffffffffffffffffffff1673ffffffffffffffffffffffffffffffffffffffff1681526020019081526020016000206040518060600160405290816000820160009054906101000a900460ff161515151581526020016000820160019054906101000a900460ff161515151581526020016001820154815250509050919050565b61102461132e565b600260058111156110385761103761165c565b5b600260009054906101000a900460ff16600581111561105a5761105961165c565b5b1461109a576040517f08c379a00000000000000000000000000000000000000000000000000000000081526004016110919061239b565b60405180910390fd5b6003600260006101000a81548160ff021916908360058111156110c0576110bf61165c565b5b02179055507f0a97a4ee45751e2abf3e4fc8946939630b11b371ea8ae39ccdc3056e98f5cc3f600260036040516110f89291906121dc565b60405180910390a1565b61110a61132e565b600073ffffffffffffffffffffffffffffffffffffffff168173ffffffffffffffffffffffffffffffffffffffff1603611179576040517f08c379a00000000000000000000000000000000000000000000000000000000081526004016111709061242d565b60405180910390fd5b611182816113ac565b50565b61118d61132e565b600060058111156111a1576111a061165c565b5b600260009054906101000a900460ff1660058111156111c3576111c261165c565b5b14611203576040517f08c379a00000000000000000000000000000000000000000000000000000000081526004016111fa906124bf565b60405180910390fd5b60011515600460008373ffffffffffffffffffffffffffffffffffffffff1673ffffffffffffffffffffffffffffffffffffffff16815260200190815260200160002060000160009054906101000a900460ff16151503611299576040517f08c379a00000000000000000000000000000000000000000000000000000000081526004016112909061252b565b60405180910390fd5b6001600460008373ffffffffffffffffffffffffffffffffffffffff1673ffffffffffffffffffffffffffffffffffffffff16815260200190815260200160002060000160006101000a81548160ff0219169083151502179055507fb6be2187d059cc2a55fe29e0e503b566e1e0f8c8780096e185429350acffd3dd816040516113239190611641565b60405180910390a150565b611336611470565b73ffffffffffffffffffffffffffffffffffffffff16611354610a05565b73ffffffffffffffffffffffffffffffffffffffff16146113aa576040517f08c379a00000000000000000000000000000000000000000000000000000000081526004016113a190612597565b60405180910390fd5b565b60008060009054906101000a900473ffffffffffffffffffffffffffffffffffffffff169050816000806101000a81548173ffffffffffffffffffffffffffffffffffffffff021916908373ffffffffffffffffffffffffffffffffffffffff1602179055508173ffffffffffffffffffffffffffffffffffffffff168173ffffffffffffffffffffffffffffffffffffffff167f8be0079c531659141344cd1fd0a4f28419497f9722a3daafe3b4186f6b6457e060405160405180910390a35050565b600033905090565b604051806040016040528060608152602001600081525090565b6040518060600160405280600015158152602001600015158152602001600081525090565b600080fd5b600080fd5b6000819050919050565b6114d4816114c1565b81146114df57600080fd5b50565b6000813590506114f1816114cb565b92915050565b60006020828403121561150d5761150c6114b7565b5b600061151b848285016114e2565b91505092915050565b61152d816114c1565b82525050565b60006020820190506115486000830184611524565b92915050565b600080fd5b600080fd5b600080fd5b60008083601f8401126115735761157261154e565b5b8235905067ffffffffffffffff8111156115905761158f611553565b5b6020830191508360018202830111156115ac576115ab611558565b5b9250929050565b600080602083850312156115ca576115c96114b7565b5b600083013567ffffffffffffffff8111156115e8576115e76114bc565b5b6115f48582860161155d565b92509250509250929050565b600073ffffffffffffffffffffffffffffffffffffffff82169050919050565b600061162b82611600565b9050919050565b61163b81611620565b82525050565b60006020820190506116566000830184611632565b92915050565b7f4e487b7100000000000000000000000000000000000000000000000000000000600052602160045260246000fd5b6006811061169c5761169b61165c565b5b50565b60008190506116ad8261168b565b919050565b60006116bd8261169f565b9050919050565b6116cd816116b2565b82525050565b60006020820190506116e860008301846116c4565b92915050565b600081519050919050565b600082825260208201905092915050565b60005b8381101561172857808201518184015260208101905061170d565b60008484015250505050565b6000601f19601f8301169050919050565b6000611750826116ee565b61175a81856116f9565b935061176a81856020860161170a565b61177381611734565b840191505092915050565b611787816114c1565b82525050565b600060408301600083015184820360008601526117aa8282611745565b91505060208301516117bf602086018261177e565b508091505092915050565b600060208201905081810360008301526117e4818461178d565b905092915050565b6117f581611620565b811461180057600080fd5b50565b600081359050611812816117ec565b92915050565b60006020828403121561182e5761182d6114b7565b5b600061183c84828501611803565b91505092915050565b60008115159050919050565b61185a81611845565b82525050565b6060820160008201516118766000850182611851565b5060208201516118896020850182611851565b50604082015161189c604085018261177e565b50505050565b60006060820190506118b76000830184611860565b92915050565b600082825260208201905092915050565b7f596f75277265206e6f74206120766f7465720000000000000000000000000000600082015250565b60006119046012836118bd565b915061190f826118ce565b602082019050919050565b60006020820190508181036000830152611933816118f7565b9050919050565b7f566f74696e672073657373696f6e20686176656e74207374617274656420796560008201527f7400000000000000000000000000000000000000000000000000000000000000602082015250565b60006119966021836118bd565b91506119a18261193a565b604082019050919050565b600060208201905081810360008301526119c581611989565b9050919050565b7f596f75206861766520616c726561647920766f74656400000000000000000000600082015250565b6000611a026016836118bd565b9150611a0d826119cc565b602082019050919050565b60006020820190508181036000830152611a31816119f5565b9050919050565b7f50726f706f73616c206e6f7420666f756e640000000000000000000000000000600082015250565b6000611a6e6012836118bd565b9150611a7982611a38565b602082019050919050565b60006020820190508181036000830152611a9d81611a61565b9050919050565b7f4e487b7100000000000000000000000000000000000000000000000000000000600052603260045260246000fd5b7f4e487b7100000000000000000000000000000000000000000000000000000000600052601160045260246000fd5b6000611b0d826114c1565b91507fffffffffffffffffffffffffffffffffffffffffffffffffffffffffffffffff8203611b3f57611b3e611ad3565b5b600182019050919050565b6000604082019050611b5f6000830185611632565b611b6c6020830184611524565b9392505050565b7f50726f706f73616c7320617265206e6f7420616c6c6f77656420796574000000600082015250565b6000611ba9601d836118bd565b9150611bb482611b73565b602082019050919050565b60006020820190508181036000830152611bd881611b9c565b9050919050565b7f4d6178696d756d206e756d626572206f662070726f706f73616c73207265616360008201527f6865640000000000000000000000000000000000000000000000000000000000602082015250565b6000611c3b6023836118bd565b9150611c4682611bdf565b604082019050919050565b60006020820190508181036000830152611c6a81611c2e565b9050919050565b50565b6000611c816000836118bd565b9150611c8c82611c71565b600082019050919050565b60006020820190508181036000830152611cb081611c74565b9050919050565b82818337600083830152505050565b6000611cd283856118bd565b9350611cdf838584611cb7565b611ce883611734565b840190509392505050565b60006020820190508181036000830152611d0e818486611cc6565b90509392505050565b7f566f7573206e6520706f7576657a20706173206e65207269656e2070726f706f60008201527f7365720000000000000000000000000000000000000000000000000000000000602082015250565b6000611d736023836118bd565b9150611d7e82611d17565b604082019050919050565b60006020820190508181036000830152611da281611d66565b9050919050565b7f4e487b7100000000000000000000000000000000000000000000000000000000600052604160045260246000fd5b7f4e487b7100000000000000000000000000000000000000000000000000000000600052602260045260246000fd5b60006002820490506001821680611e1f57607f821691505b602082108103611e3257611e31611dd8565b5b50919050565b60008190508160005260206000209050919050565b60006020601f8301049050919050565b600082821b905092915050565b600060088302611e9a7fffffffffffffffffffffffffffffffffffffffffffffffffffffffffffffffff82611e5d565b611ea48683611e5d565b95508019841693508086168417925050509392505050565b6000819050919050565b6000611ee1611edc611ed7846114c1565b611ebc565b6114c1565b9050919050565b6000819050919050565b611efb83611ec6565b611f0f611f0782611ee8565b848454611e6a565b825550505050565b600090565b611f24611f17565b611f2f818484611ef2565b505050565b5b81811015611f5357611f48600082611f1c565b600181019050611f35565b5050565b601f821115611f9857611f6981611e38565b611f7284611e4d565b81016020851015611f81578190505b611f95611f8d85611e4d565b830182611f34565b50505b505050565b600082821c905092915050565b6000611fbb60001984600802611f9d565b1980831691505092915050565b6000611fd48383611faa565b9150826002028217905092915050565b611fed826116ee565b67ffffffffffffffff81111561200657612005611da9565b5b6120108254611e07565b61201b828285611f57565b600060209050601f83116001811461204e576000841561203c578287015190505b6120468582611fc8565b8655506120ae565b601f19841661205c86611e38565b60005b828110156120845784890151825560018201915060208501945060208101905061205f565b868310156120a1578489015161209d601f891682611faa565b8355505b6001600288020188555050505b505050505050565b60006120c1826114c1565b91506120cc836114c1565b92508282039050818111156120e4576120e3611ad3565b5b92915050565b7f43757272656e7420737461747573206973206e6f7420766f74696e672073657360008201527f73696f6e20656e64656400000000000000000000000000000000000000000000602082015250565b6000612146602a836118bd565b9150612151826120ea565b604082019050919050565b6000602082019050818103600083015261217581612139565b9050919050565b7f4e487b7100000000000000000000000000000000000000000000000000000000600052601260045260246000fd5b60006121b6826114c1565b91506121c1836114c1565b9250826121d1576121d061217c565b5b828204905092915050565b60006040820190506121f160008301856116c4565b6121fe60208301846116c4565b9392505050565b7f5265676973746572696e672070726f706f73616c732063616e7420626520737460008201527f6172746564206e6f770000000000000000000000000000000000000000000000602082015250565b60006122616029836118bd565b915061226c82612205565b604082019050919050565b6000602082019050818103600083015261229081612254565b9050919050565b7f5265676973746572696e672070726f706f73616c7320686176656e742073746160008201527f7274656420796574000000000000000000000000000000000000000000000000602082015250565b60006122f36028836118bd565b91506122fe82612297565b604082019050919050565b60006020820190508181036000830152612322816122e6565b9050919050565b7f5265676973746572696e672070726f706f73616c73207068617365206973206e60008201527f6f742066696e6973686564000000000000000000000000000000000000000000602082015250565b6000612385602b836118bd565b915061239082612329565b604082019050919050565b600060208201905081810360008301526123b481612378565b9050919050565b7f4f776e61626c653a206e6577206f776e657220697320746865207a65726f206160008201527f6464726573730000000000000000000000000000000000000000000000000000602082015250565b60006124176026836118bd565b9150612422826123bb565b604082019050919050565b600060208201905081810360008301526124468161240a565b9050919050565b7f566f7465727320726567697374726174696f6e206973206e6f74206f70656e2060008201527f7965740000000000000000000000000000000000000000000000000000000000602082015250565b60006124a96023836118bd565b91506124b48261244d565b604082019050919050565b600060208201905081810360008301526124d88161249c565b9050919050565b7f416c726561647920726567697374657265640000000000000000000000000000600082015250565b60006125156012836118bd565b9150612520826124df565b602082019050919050565b6000602082019050818103600083015261254481612508565b9050919050565b7f4f776e61626c653a2063616c6c6572206973206e6f7420746865206f776e6572600082015250565b60006125816020836118bd565b915061258c8261254b565b602082019050919050565b600060208201905081810360008301526125b081612574565b905091905056fea26469706673582212206d198d36a142f0d7c234f59965ddceb695ac03322f63671241ddcf4b9249275664736f6c63430008130033",
  "immutableReferences": {},
  "source": "// SPDX-License-Identifier: MIT\n\npragma solidity 0.8.19;\n\nimport \"../node_modules/@openzeppelin/contracts/access/Ownable.sol\";\n\ncontract Voting is Ownable {\n\n    uint public winningProposalID;\n    \n    struct Voter {\n        bool isRegistered;\n        bool hasVoted;\n        uint votedProposalId;\n    }\n\n    struct Proposal {\n        string description;\n        uint voteCount;\n    }\n\n    enum  WorkflowStatus {\n        RegisteringVoters,\n        ProposalsRegistrationStarted,\n        ProposalsRegistrationEnded,\n        VotingSessionStarted,\n        VotingSessionEnded,\n        VotesTallied\n    }\n\n    WorkflowStatus public workflowStatus;\n    Proposal[] proposalsArray;\n    mapping (address => Voter) voters;\n\n\n    event VoterRegistered(address voterAddress); \n    event WorkflowStatusChange(WorkflowStatus previousStatus, WorkflowStatus newStatus);\n    event ProposalRegistered(uint proposalId);\n    event Voted (address voter, uint proposalId);\n    \n    modifier onlyVoters() {\n        require(voters[msg.sender].isRegistered, \"You're not a voter\");\n        _;\n    }\n    \n    // on peut faire un modifier pour les tats\n\n    // ::::::::::::: GETTERS ::::::::::::: //\n\n    function getVoter(address _addr) external onlyVoters view returns (Voter memory) {\n        return voters[_addr];\n    }\n    \n    function getOneProposal(uint _id) external onlyVoters view returns (Proposal memory) {\n        return proposalsArray[_id];\n    }\n\n \n    // ::::::::::::: REGISTRATION ::::::::::::: // \n\n    function addVoter(address _addr) external onlyOwner {\n        require(workflowStatus == WorkflowStatus.RegisteringVoters, 'Voters registration is not open yet');\n        require(voters[_addr].isRegistered != true, 'Already registered');\n    \n        voters[_addr].isRegistered = true;\n        emit VoterRegistered(_addr);\n    }\n \n\n    // ::::::::::::: PROPOSAL ::::::::::::: // \n\n    uint256 public maxProposals = 10; // Dfinir le nombre maximum de propositions autorises\n\n    function addProposal(string calldata _desc) external onlyVoters {\n        require(workflowStatus == WorkflowStatus.ProposalsRegistrationStarted, 'Proposals are not allowed yet');\n        require(proposalsArray.length < maxProposals, 'Maximum number of proposals reached');\n        require(keccak256(abi.encode(_desc)) != keccak256(abi.encode(\"\")), 'Vous ne pouvez pas ne rien proposer');\n\n        Proposal memory proposal;\n        proposal.description = _desc;\n         proposalsArray.push(proposal);\n        emit ProposalRegistered(proposalsArray.length-1);\n}\n\n\n\n    // ::::::::::::: VOTE ::::::::::::: //\n\n    function setVote( uint _id) external onlyVoters {\n        require(workflowStatus == WorkflowStatus.VotingSessionStarted, 'Voting session havent started yet');\n        require(voters[msg.sender].hasVoted != true, 'You have already voted');\n        require(_id < proposalsArray.length, 'Proposal not found'); // pas oblig, et pas besoin du >0 car uint\n\n        voters[msg.sender].votedProposalId = _id;\n        voters[msg.sender].hasVoted = true;\n        proposalsArray[_id].voteCount++;\n\n        emit Voted(msg.sender, _id);\n    }\n\n    // ::::::::::::: STATE ::::::::::::: //\n\n\n    function startProposalsRegistering() external onlyOwner {\n        require(workflowStatus == WorkflowStatus.RegisteringVoters, 'Registering proposals cant be started now');\n        workflowStatus = WorkflowStatus.ProposalsRegistrationStarted;\n        \n        Proposal memory proposal;\n        proposal.description = \"GENESIS\";\n        proposalsArray.push(proposal);\n        \n        emit WorkflowStatusChange(WorkflowStatus.RegisteringVoters, WorkflowStatus.ProposalsRegistrationStarted);\n    }\n\n    function endProposalsRegistering() external onlyOwner {\n        require(workflowStatus == WorkflowStatus.ProposalsRegistrationStarted, 'Registering proposals havent started yet');\n        workflowStatus = WorkflowStatus.ProposalsRegistrationEnded;\n        emit WorkflowStatusChange(WorkflowStatus.ProposalsRegistrationStarted, WorkflowStatus.ProposalsRegistrationEnded);\n    }\n\n    function startVotingSession() external onlyOwner {\n        require(workflowStatus == WorkflowStatus.ProposalsRegistrationEnded, 'Registering proposals phase is not finished');\n        workflowStatus = WorkflowStatus.VotingSessionStarted;\n        emit WorkflowStatusChange(WorkflowStatus.ProposalsRegistrationEnded, WorkflowStatus.VotingSessionStarted);\n    }\n\n    function endVotingSession() external onlyOwner {\n        require(workflowStatus == WorkflowStatus.VotingSessionStarted, 'Voting session havent started yet');\n        workflowStatus = WorkflowStatus.VotingSessionEnded;\n        emit WorkflowStatusChange(WorkflowStatus.VotingSessionStarted, WorkflowStatus.VotingSessionEnded);\n    }\n\n\n  function tallyVotes() external onlyOwner {\n    require(workflowStatus == WorkflowStatus.VotingSessionEnded, \"Current status is not voting session ended\");\n    \n    uint256 proposalsCount = proposalsArray.length;\n    uint256 gasUsed = gasleft();\n    uint256 gasPerProposal = gasUsed / proposalsCount;\n\n    uint256 _winningProposalId;\n    uint256 maxVotes = 0;\n\n    for (uint256 p = 0; p < proposalsCount && gasleft() > gasPerProposal; p++) {\n        if (proposalsArray[p].voteCount > maxVotes) {\n            _winningProposalId = p;\n            maxVotes = proposalsArray[p].voteCount;\n        }\n    }\n\n    winningProposalID = _winningProposalId;\n    workflowStatus = WorkflowStatus.VotesTallied;\n    emit WorkflowStatusChange(WorkflowStatus.VotingSessionEnded, WorkflowStatus.VotesTallied);\n  }\n}",
  "sourcePath": "/home/benji/dev/CoursAlyra/DappsVoter/VoteReact/truffle/contracts/Voting.sol",
  "compiler": {
    "name": "solc",
    "version": "0.8.19+commit.7dd6d404.Emscripten.clang"
  },
  "schemaVersion": "3.4.14",
  "updatedAt": "2023-07-02T12:36:22.030Z",
  "networkType": "ethereum",
  "devdoc": {
    "kind": "dev",
    "methods": {
      "owner()": {
        "details": "Returns the address of the current owner."
      },
      "renounceOwnership()": {
        "details": "Leaves the contract without owner. It will not be possible to call `onlyOwner` functions. Can only be called by the current owner. NOTE: Renouncing ownership will leave the contract without an owner, thereby disabling any functionality that is only available to the owner."
      },
      "transferOwnership(address)": {
        "details": "Transfers ownership of the contract to a new account (`newOwner`). Can only be called by the current owner."
      }
    },
    "version": 1
  },
  "userdoc": {
    "kind": "user",
    "methods": {},
    "version": 1
  }
}